:100000000C9463000C946D000C946D000C946D00C6
:100010000C946D000C946D000C946D000C946D00AC
:100020000C946D000C946D000C946D000C946D009C
:100030000C946D000C946D000C946D000C946D008C
:100040000C946D000C946D000C946D000C946D007C
:100050000C946D00620164021A011A011A011A015E
:100060001A011A011A011A011A011A011A011A01B8
:100070001A011A011A011A011A011A011A011A01A8
:100080001A011A01F7011A011A011A011A011A01BB
:100090001A01CF015E01FD011A011A0179021A014C
:1000A0001A0174011A011A011A01EB011A018601E1
:1000B0001A011A018B0190026D011A012A011A011D
:1000C0001A011A01F10111241FBECFE5D4E0DEBFF1
:1000D000CDBF0E94B1000C94E6020C9400005E9A21
:1000E0008CB95E9BFECF0895C498C79820E130E09C
:1000F000C7982031310511F4C5980AC02F30310559
:1001000011F4C5980DC02E30310511F4C59A11C0F7
:100110002D30310529F4C59AC79A21503109E8CF0D
:100120002D30310534F4882314F4C59A01C0C598E4
:10013000880FC79A21503109D9F6C49A0895982F8B
:100140009575292F220F982F9A7A9695922B892FA1
:100150008373880F880F9C7C96959695892B829542
:100160000895CF93DF93CDB7DEB728970FB6F894F5
:10017000DEBF0FBECDBF8F9A1ABAA19AB89AC09AA5
:10018000BD9ABC9AC49ABF9A94988C9893988B986D
:100190008D9AA69AA7988898899AA09AA898BA98AA
:1001A000C29A8E9A96988AB188618AB980B5866813
:1001B00080BD10BC8FE089B98FB580648FBD8EB5CE
:1001C00089608EBD21E02B833FEF3C83312C662478
:1001D000639481E08A8391E09983412C22E72D8307
:1001E0000F2EFFE72F2EF02D1E820EE6712C11E050
:1001F00021C0B2991FC09798A99AA998A89AA898BF
:10020000C0988E818E3671F0972D8CB19111CDC131
:100210009F9BCAC123B304C083E40E946F0002C045
:100220008E3699F7C09A0E8305C093E39A8302C075
:1002300024E32A835F9BDDCF3CB13E83832F90E094
:10024000FC01E254F109E933F105A0F7E65DFF4F47
:100250000C94E00284E40E946F0083E50E946F002A
:100260008FE40E946F0080E20E946F0086E50E948A
:100270006F0085E60E946F0082E70E946F0083E7AF
:100280000E946F0089E60E946F008FE60E946F0057
:10029000802F0E946F0080E20E946F0081E30E9425
:1002A0006F008EE20E946F0081E30E946F008AE07F
:1002B0000E946F008DE00E946F00BCCF8B810E9476
:1002C0006F00B8CF8B81813009F0B4CF599A10BC40
:1002D00094E099B922E02B83ADCF5F9BFECF2CB089
:1002E000822D0E947400A6CF5F9BFECF9CB19E839F
:1002F000923721F4969822E72D839CCF3E813636A3
:1003000009F098CF969A86E68D8394CF5F9BFECFB7
:100310004CB04E828FCF5F9BFECF9CB19E839133BA
:1003200049F41BBC1ABC949A8C9A939A8B9A21E339
:10033000298318C03E81323349F41BBC1ABC9498FF
:100340008C9A93988B9A82E389831AC09E81933307
:1003500049F41BBC1ABC94988C9893988B9823E30F
:10036000298368CF3E81343359F494988C989398BC
:100370008B988AE090E09BBD8ABD94E399835ACF25
:100380002E81253309F056CF94988C9893988B98AA
:1003900080E197E29BBD8ABD95E399834BCF5F9B3C
:1003A000FECF2CB12E83213331F0223359F0233389
:1003B00009F43BCF02C031E33A838E81843309F4E0
:1003C00037CF02C092E39A832E81253309F032CFD2
:1003D00035E33A832FCF5F9BFECF8CB18E83682E9F
:1003E00029CF5F9BFECF9CB19E83392E23CF5F9B8D
:1003F000FECF2CB12E832C831DCF84E70E946F008B
:10040000822D0E946F0080E20E946F0084E50E94AE
:100410006F008FE70E946F0080E20E946F0083E709
:100420000E946F008D810E946F0080E20E946F0029
:100430008FE60E946F00842D0E946F0080E20E9470
:100440006F0082E70E946F0089810E946F0080E246
:100450000E946F0081E60E946F008A810E946F00F7
:1004600080E20E946F0081E40E946F0081E00E94A0
:100470006F0080E20E946F008DE60E946F00862D63
:100480000E946F0080E20E946F008AE70E946F0066
:10049000832D0E946F0080E20E946F008AE50E9417
:1004A0006F008C810E946F0080E20E946F0082E6E4
:1004B0000E946F008B810E946F008AE00E946F0093
:1004C0008DE00E946F00B6CE9798A99AA998872DC3
:1004D0003CB13E8381116DC09F9B6AC093B305C040
:1004E00083E40E946F000E83A5CE9E819E3681F725
:1004F000A1CE9798A99AA998A89AA898872D2CB1C7
:100500002E8381115AC09F9B57C093B305C083E4CB
:100510000E946F000E838ECE3E813E3681F78ACEDA
:10052000979A8FEF839D700111249C81899F5001C0
:10053000112418861F82812C912CCC24CA94C60CBD
:10054000D12C2FEFC21AD20A5CB02F8138852E151C
:100550003F0560F4AE9AAE988F8198850196988792
:100560008F838E159F05B1F7F886EF8289B30E94BD
:100570009F000E946F009FEF891A990A662059F028
:10058000862DAE9AAE988150E1F78F8198858C0DBB
:100590009D1D98878F838A149B0418F49EE6591238
:1005A000D3CF97980E8346CE912F9F9B39CE34CED2
:1005B000812F9F9B9ACF94CF812F9F9BADCFA7CFA9
:1005C000EE0FFF1F0590F491E02D0994F894FFCFF2
:00000001FF
