:100000000C9463000C946D000C946D000C946D00C6
:100010000C946D000C946D000C946D000C946D00AC
:100020000C946D000C946D000C946D000C946D009C
:100030000C946D000C946D000C946D000C946D008C
:100040000C946D000C946D000C946D000C946D007C
:100050000C946D0088039D05C002C002C002C0025E
:10006000C002C002C002C002C002C002C002C00280
:10007000C002C002C002C002C002C002C002C00270
:10008000C002C0022705C002C002C002C002C002F6
:10009000C002E20484033605C002C002DC05C002CF
:1000A000C002B103C002C002C0020905C002DB03E6
:1000B000C002C002EA032D06A103C0025003C00221
:1000C000C002C002180511241FBECFE5D4E0DEBF78
:1000D000CDBF0E949A010C94C5060C940000CF93EA
:1000E000DF9300D01F92CDB7DEB78B8384E690E01C
:1000F0009A8389830CC089819A8101979A83898325
:1001000089819A81892BB9F78B8181508B838B816F
:100110008823B1F700000F900F900F90DF91CF91DF
:100120000895CF93DF931F92CDB7DEB789838BE21B
:1001300090E02BE230E0F90120812064FC01208373
:100140008CE290E02981FC01208300008BE290E0AA
:10015000FC018081882F90E080749927892BB1F36E
:1001600000000F90DF91CF910895CF93DF9300D0DF
:100170001F92CDB7DEB78B831A82198288E390E095
:1001800028E330E0F90120812F7EFC01208388E301
:1001900090E028E330E0F90120812F77FC012083F3
:1001A00080E190E09A8389836EC088E390E028E341
:1001B00030E0F90120812F77FC01208389819A8129
:1001C000409749F488E390E028E330E0F90120818A
:1001D0002F7DFC01208389819A810F9749F488E360
:1001E00090E028E330E0F90120812F7DFC0120839D
:1001F00089819A810E9749F488E390E028E330E002
:10020000F90120812062FC01208389819A810D9768
:1002100049F488E390E028E330E0F901208120628E
:10022000FC01208389819A810D97CCF48B818823EE
:1002300054F488E390E028E330E0F9012081206263
:10024000FC01208309C088E390E028E330E0F90155
:1002500020812F7DFC0120838B81880F8B838AE096
:100260000E946F0088E390E028E330E0F9012081EC
:100270002068FC0120838AE00E946F0089819A81B6
:1002800001979A83898389819A81181619060CF43B
:100290008CCF8AE00E946F0088E390E028E330E092
:1002A000F90120812061FC01208300000F900F9054
:1002B0000F90DF91CF910895CF93DF931F92CDB729
:1002C000DEB789838981882F90E085759927880F0B
:1002D000991F282F8981882F90E08A7A99279595F0
:1002E0008795822B89838981882F90E08373992752
:1002F000880F991F880F991F282F8981882F90E0D8
:100300008C7C99279595879595958795822B8983E0
:100310008981882F90E082959295907F9827807FA1
:100320009827982F898182958F70892B0F90DF9164
:10033000CF910895CF93DF93CDB7DEB764970FB613
:10034000F894DEBF0FBECDBF19828FE78A838FE797
:10035000898B82E78B831C8281E08D8381E08E8391
:1003600081E08A8B81E08F8318868FEF898781E017
:100370008A871C861E861D86188A1F861C8A1B8AF1
:1003800081E390E021E330E0F90120812068FC0165
:1003900020838AE390E0FC01108284E390E024E370
:1003A00030E0F90120812260FC01208387E390E0A6
:1003B00027E330E0F90120812160FC01208388E3FC
:1003C00090E028E330E0F90120812160FC012083E6
:1003D00087E390E027E330E0F90120812062FC010F
:1003E000208387E390E027E330E0F901208120615A
:1003F000FC01208388E390E028E330E0F9012081CC
:100400002061FC01208387E390E027E330E0F901DD
:1004100020812068FC01208382E390E022E330E029
:10042000F90120812F7EFC01208381E390E021E30C
:1004300030E0F90120812F7EFC01208382E390E0EF
:1004400022E330E0F9012081277FFC01208381E352
:1004500090E021E330E0F9012081277FFC01208337
:1004600081E390E021E330E0F90120812062FC018A
:10047000208384E390E024E330E0F90120812064CC
:10048000FC01208384E390E024E330E0F901208143
:100490002F77FC01208381E390E021E330E0F90134
:1004A00020812E7FFC01208381E390E021E330E076
:1004B000F90120812260FC01208384E390E024E3A1
:1004C00030E0F90120812160FC01208385E390E088
:1004D00025E330E0F90120812E7FFC01208387E3B2
:1004E00090E027E330E0F90120812B7FFC0120839D
:1004F00088E390E028E330E0F90120812460FC01EA
:10050000208381E390E021E330E0F9012081206441
:10051000FC01208382E390E022E330E0F9012081B6
:100520002F7BFC0120838AE290E02AE230E0F9018F
:1005300020812861FC01208380E490E020E430E009
:10054000F90120812668FC01208380E490E0FC0111
:10055000108289E290E02FE0FC0120838FE490E09C
:100560002FE430E0F90120812064FC0120838EE437
:1005700090E02EE430E0F90120812960FC01208325
:100580006DC086E390E0FC018081882F90E084704C
:100590009927892B09F062C082E390E022E330E0E2
:1005A000F90120812F77FC01208385E390E025E38A
:1005B00030E0F90120812260FC01208385E390E096
:1005C00025E330E0F90120812D7FFC01208385E3C4
:1005D00090E025E330E0F90120812160FC012083D7
:1005E00085E390E025E330E0F90120812E7FFC01D6
:1005F000208388E390E028E330E0F90120812E7F1A
:10060000FC0120831C861EC08CE290E0FC018081EE
:1006100089838C85882341F483E390E0FC01808109
:10062000882314F081E08C8783E390E0FC018081D3
:10063000882344F48C85882329F083E40E94910068
:100640008EE6898389818E36F9F688E390E028E387
:1006500030E0F90120812160FC0120838BE290E0F1
:10066000FC01808188230CF08CCF8CE290E0FC01AF
:10067000808189838981882F90E0092E000CAA0B44
:10068000BB0B42E450E028E330E0841B950B2817B5
:10069000390708F475CF865D9F4FFC010C94BF06A7
:1006A00084E40E94910083E50E9491008FE40E94FF
:1006B000910080E20E94910086E50E94910085E60B
:1006C0000E94910082E70E94910083E70E949100BE
:1006D00089E60E9491008FE60E9491008EE60E94BA
:1006E000910080E20E94910081E30E9491008EE2DD
:1006F0000E94910081E30E9491008AE00E94910093
:100700008DE00E9491003AC38A850E94910036C311
:100710008A85813009F02BC38BE290E02BE230E038
:10072000F90120812260FC01208380E490E0FC013B
:10073000108289E290E024E0FC01208382E08A8735
:1007400016C300008BE290E0FC0180818823D4F77F
:100750008CE290E0FC0180818A838A810E94B5004E
:100760000DC300008BE290E0FC0180818823D4F768
:100770008CE290E0FC01808189838981823759F481
:1007800082E78B8382E390E022E330E0F90120816D
:100790002F7BFC0120838981863609F0EAC286E638
:1007A0008B8382E390E022E330E0F9012081206432
:1007B000FC012083DEC200008BE290E0FC0180811E
:1007C0008823D4F78CE290E0FC01808189838981C1
:1007D0008C83D4C200008BE290E0FC0180818823EE
:1007E000D4F78CE290E0FC01808189838981813398
:1007F00059F58AE490E0FC011182108281E38D8337
:1008000082E390E022E330E0F90120812061FC01E5
:10081000208381E390E021E330E0F9012081206131
:10082000FC01208382E390E022E330E0F9012081A3
:100830002860FC01208381E390E021E330E0F901AE
:1008400020812860FC0120838981823359F582E36D
:100850008D838AE490E0FC011182108282E390E0B3
:1008600022E330E0F90120812F7EFC01208381E327
:1008700090E021E330E0F90120812061FC01208338
:1008800082E390E022E330E0F9012081277FFC0140
:10089000208381E390E021E330E0F90120812860AA
:1008A000FC0120838981833359F583E38D838AE4B6
:1008B00090E0FC011182108282E390E022E330E0BC
:1008C000F90120812F7EFC01208381E390E021E368
:1008D00030E0F90120812F7EFC01208382E390E04B
:1008E00022E330E0F9012081277FFC01208381E3AE
:1008F00090E021E330E0F9012081277FFC01208393
:100900008981843369F582E390E022E330E0F901E4
:1009100020812F7EFC01208381E390E021E330E001
:10092000F90120812F7EFC01208382E390E022E305
:1009300030E0F9012081277FFC01208381E390E0F2
:1009400021E330E0F9012081277FFC0120838AE444
:1009500090E02AE030E0FC013183208384E38D8342
:100960008981853309F007C282E390E022E330E019
:10097000F90120812F7EFC01208381E390E021E3B7
:1009800030E0F90120812F7EFC01208382E390E09A
:1009900022E330E0F9012081277FFC01208381E3FD
:1009A00090E021E330E0F9012081277FFC012083E2
:1009B0008AE490E020E137E2FC013183208385E383
:1009C0008D83D9C100008BE290E0FC0180818823F7
:1009D000D4F78CE290E0FC018081898389818133A6
:1009E00011F481E38E838981823311F482E38E8353
:1009F0008981833311F483E38E838981843311F4F5
:100A000084E38E838981853309F0B7C185E38E83C2
:100A1000B4C100008BE290E0FC0180818823D4F710
:100A20008CE290E0FC018081898389818F83A6C15B
:100A300000008BE290E0FC0180818823D4F78CE2F7
:100A400090E0FC01808189838981888797C10000BB
:100A50008BE290E0FC0180818823D4F78CE290E067
:100A6000FC01808189838981898788C184E70E940C
:100A700091008A810E94910080E20E94910084E5A9
:100A80000E94910089890E94910080E20E94910059
:100A900083E70E9491008B810E94910080E20E9476
:100AA00091008FE60E9491008C810E94910080E26B
:100AB0000E94910082E70E9491008D810E94910026
:100AC00080E20E94910081E60E9491008E810E9446
:100AD000910080E20E94910081E40E9491008A8945
:100AE0000E94910080E20E9491008DE60E94910098
:100AF0008F810E94910080E20E9491008AE70E940B
:100B0000910088850E94910080E20E9491008AE510
:100B10000E94910089850E94910080E20E949100CC
:100B200082E60E9491008A850E9491008AE00E94DC
:100B300091008DE00E94910021C182E390E022E3C8
:100B400030E0F90120812F77FC01208385E390E0DC
:100B500025E330E0F90120812260FC01208385E358
:100B600090E025E330E0F90120812D7FFC01208316
:100B70001C861EC08CE290E0FC01808189838C85FC
:100B8000882341F483E390E0FC018081882314F002
:100B900081E08C8783E390E0FC018081882344F42A
:100BA0008C85882329F083E40E9491008EE6898356
:100BB00089818E36F9F6E2C082E390E022E330E0EC
:100BC000F90120812F77FC01208385E390E025E364
:100BD00030E0F90120812260FC01208385E390E070
:100BE00025E330E0F90120812D7FFC01208385E39E
:100BF00090E025E330E0F90120812160FC012083B1
:100C000085E390E025E330E0F90120812E7FFC01AF
:100C100020831C861EC08CE290E0FC0180818983C9
:100C20008C85882341F483E390E0FC018081882354
:100C300014F081E08C8783E390E0FC0180818823BD
:100C400044F48C85882329F083E40E9491008EE689
:100C5000898389818E36F9F691C01E861D86188A91
:100C60001F8682E390E022E330E0F90120812068D2
:100C7000FC0120836EC08CE290E0FC0180818983BE
:100C800017C085E390E025E330E0F901208120647E
:100C9000FC01208385E390E025E330E0F901208129
:100CA0002F7BFC0120838F8598890196988B8F87F5
:100CB0008885882F90E04FEF489F9001499F300D25
:100CC00011248F85988982179307D8F289E390E0E1
:100CD000FC0180810E945C018B878B850E949100C2
:100CE0008D859E8501969E878D878F818B871AC003
:100CF00085E390E025E330E0F90120812064FC01E8
:100D0000208385E390E025E330E0F90120812F7B0B
:100D1000FC0120838F8598890196988B8F878B851E
:100D200081508B878B85882319F78985282F30E0A0
:100D30004FEF429FC001439F900D11249C8B8B8BE2
:100D40002D853E858B899C892817390710F08EE602
:100D5000898389818E3609F08ECF82E390E022E389
:100D600030E0F90120812F77FC01208307C00000CB
:100D700007CC000005CC000003CC000001CCEE0F36
:0E0D8000FF1F0590F491E02D0994F894FFCF29
:00000001FF
