:100000000C9464000C946E000C946E000C946E00C2
:100010000C946E000C946E000C946E000C946E00A8
:100020000C946E000C946E000C946E000C946E0098
:100030000C946E000C946E000C946E000C946E0088
:100040000C946E000C946E000C946E000C946E0078
:100050000C946E00B80427037305710271027102DB
:1000600071027102710271027102710271027102F8
:1000700071027102710271028B06500371027102EA
:10008000710271027102FD0471027102710271024A
:1000900071027102910423030C0571027102B20511
:1000A000710271026003710271027102DF04710258
:1000B0008A03710271029903030640037102EF0281
:1000C000710271027102EE0411241FBECFE5D4E06B
:1000D000DEBFCDBF0E945D010C9423070C9400008D
:1000E000CF93DF9300D01F92CDB7DEB78B8384E62A
:1000F00090E09A8389830CC089819A8101979A83C1
:10010000898389819A81892BB9F78B8181508B836F
:100110008B818823B1F700000F900F900F90DF9133
:10012000CF910895CF93DF931F92CDB7DEB7898328
:100130008BE290E02BE230E0F90120812064FC01A9
:1001400020838CE290E02981FC01208300008BE277
:1001500090E0FC018081882F90E080749927892BA2
:10016000B1F300000F90DF91CF910895CF93DF930B
:1001700000D01F92CDB7DEB78B831A82198288E335
:1001800090E028E330E0F90120812F7EFC012083FC
:1001900088E390E028E330E0F90120812F77FC012B
:1001A000208380E190E09A8389836EC088E390E0A9
:1001B00028E330E0F90120812F77FC012083898139
:1001C0009A81409749F488E390E028E330E0F90110
:1001D00020812F7DFC01208389819A810F9749F42A
:1001E00088E390E028E330E0F90120812F7DFC01D5
:1001F000208389819A810E9749F488E390E028E36F
:1002000030E0F90120812062FC01208389819A81FC
:100210000D9749F488E390E028E330E0F90120816C
:100220002062FC01208389819A810D97CCF48B8117
:10023000882354F488E390E028E330E0F90120813A
:100240002062FC01208309C088E390E028E330E0CD
:10025000F90120812F7DFC0120838B81880F8B8306
:100260008AE00E94700088E390E028E330E0F90122
:1002700020812068FC0120838AE00E94700089812F
:100280009A8101979A83898389819A811816190620
:100290000CF48CCF8AE00E94700088E390E028E3A1
:1002A00030E0F90120812061FC01208300000F90E3
:1002B0000F900F90DF91CF910895CF93DF93CDB73B
:1002C000DEB764970FB6F894DEBF0FBECDBF1982BC
:1002D0008FE78A838FE78B8382E78C831D8281E09F
:1002E0008E8381E08F8381E0888781E089871A8609
:1002F0008FEF8B8781E08C871E86188A1F861A8A6B
:10030000198A1C8A1B8A81E390E021E330E0F9011D
:1003100020812068FC0120838AE390E0FC011082A8
:1003200084E390E024E330E0F90120812260FC01C5
:10033000208387E390E027E330E0F9012081206209
:10034000FC01208387E390E027E330E0F90120817E
:100350002061FC01208388E390E028E330E0F9018C
:1003600020812061FC01208387E390E027E330E0D7
:10037000F90120812068FC01208382E390E022E3E0
:1003800030E0F90120812F7EFC01208381E390E0A1
:1003900021E330E0F90120812F7EFC01208382E3FC
:1003A00090E022E330E0F9012081277FFC012083E7
:1003B00081E390E021E330E0F9012081277FFC0117
:1003C000208381E390E021E330E0F9012081206285
:1003D000FC01208384E390E024E330E0F9012081F4
:1003E0002064FC01208384E390E024E330E0F90101
:1003F00020812F77FC01208381E390E021E330E02E
:10040000F90120812E7FFC01208381E390E021E32C
:1004100030E0F90120812260FC01208384E390E038
:1004200024E330E0F90120812160FC01208385E391
:1004300090E025E330E0F90120812E7FFC0120834C
:1004400087E390E027E330E0F90120812B7FFC0176
:10045000208388E390E028E330E0F90120812460E4
:10046000FC01208381E390E021E330E0F901208169
:100470002064FC01208382E390E022E330E0F90174
:1004800020812F7BFC0120838AE290E02AE230E089
:10049000F90120812861FC01208380E490E020E4C0
:1004A00030E0F90120812668FC01208380E490E09F
:1004B000FC01108289E290E02FE0FC0120838FE4B0
:1004C00090E02FE430E0F90120812064FC012083DA
:1004D0008EE490E02EE430E0F90120812960FC01F7
:1004E00020835BC086E390E0FC018081882F90E050
:1004F00084709927892B09F050C082E390E022E3B1
:1005000030E0F90120812F77FC01208385E390E022
:1005100025E330E0F90120812260FC01208385E39E
:1005200090E025E330E0F90120812D7FFC0120835C
:1005300085E390E025E330E0F90120812160FC01B2
:10054000208385E390E025E330E0F90120812E7FD0
:10055000FC0120831E861EC08CE290E0FC0180819D
:1005600089838E85882341F483E390E0FC018081B8
:10057000882314F081E08E8783E390E0FC01808182
:10058000882344F48E85882329F083E40E94920016
:100590008EE6898389818E36F9F68BE290E0FC0144
:1005A000808188230CF09ECF8CE290E0FC0180815A
:1005B00089838981882F90E0092E000CAA0BBB0B40
:1005C00041E450E029E330E0841B950B28173907FC
:1005D00008F487CF865D9F4FFC010C941D0784E4CF
:1005E0000E94920083E50E9492008FE40E94920094
:1005F00080E20E94920086E50E94920085E60E94B9
:10060000920082E70E94920083E70E94920089E6AE
:100610000E9492008FE60E9492008EE60E94920055
:1006200080E20E94920082E30E9492008EE20E9489
:10063000920080E30E9492008AE00E9492008DE086
:100640000E949200F9C38C850E949200F5C38C85AC
:10065000813009F0E8C38BE290E02BE230E0F90151
:1006600020812260FC01208380E490E0FC01108264
:1006700089E290E024E0FC01208382E08C87D3C3F0
:1006800000008BE290E0FC0180818823D4F78CE2AB
:1006900090E0FC0180818A838A810E94B600CCC3ED
:1006A00000008BE290E0FC0180818823D4F78CE28B
:1006B00090E0FC0180818B838B810E94B600BCC3DB
:1006C00000008BE290E0FC0180818823D4F78CE26B
:1006D00090E0FC01808189838981823759F482E727
:1006E0008C8382E390E022E330E0F90120812F7BCC
:1006F000FC0120838981863609F097C386E68C83C6
:1007000082E390E022E330E0F90120812064FC01E3
:1007100020838BC300008BE290E0FC018081882362
:10072000D4F78CE290E0FC018081898389818D83FC
:1007300083C300008BE290E0FC0180818823D4F722
:100740008CE290E0FC01808189838981813359F5B5
:100750008AE490E0FC011182108281E38E8382E3BF
:1007600090E022E330E0F90120812061FC01208348
:1007700081E390E021E330E0F90120812061FC0178
:10078000208382E390E022E330E0F90120812860B9
:10079000FC01208381E390E021E330E0F901208136
:1007A0002860FC0120838981823359F582E38E839E
:1007B0008AE490E0FC011182108282E390E022E35F
:1007C00030E0F90120812F7EFC01208381E390E05D
:1007D00021E330E0F90120812061FC01208382E3E4
:1007E00090E022E330E0F9012081277FFC012083A3
:1007F00081E390E021E330E0F90120812860FC01F1
:1008000020838981833359F583E38E838AE490E0E2
:10081000FC011182108282E390E022E330E0F901D2
:1008200020812F7EFC01208381E390E021E330E0F2
:10083000F90120812F7EFC01208382E390E022E3F6
:1008400030E0F9012081277FFC01208381E390E0E3
:1008500021E330E0F9012081277FFC012083898199
:10086000843369F582E390E022E330E0F9012081EE
:100870002F7EFC01208381E390E021E330E0F90149
:1008800020812F7EFC01208382E390E022E330E090
:10089000F9012081277FFC01208381E390E021E39F
:1008A00030E0F9012081277FFC0120838AE490E079
:1008B0002AE030E0FC013183208384E38E83898148
:1008C000853309F0B4C282E390E022E330E0F9011D
:1008D00020812F7EFC01208381E390E021E330E042
:1008E000F90120812F7EFC01208382E390E022E346
:1008F00030E0F9012081277FFC01208381E390E033
:1009000021E330E0F9012081277FFC0120838AE484
:1009100090E020E137E2FC013183208385E38E8380
:1009200086C200008BE290E0FC0180818823D4F72E
:100930008CE290E0FC01808189838981813311F40C
:1009400081E38F838981823311F482E38F838981EC
:10095000833311F483E38F838981843311F484E337
:100960008F838981853309F064C285E38F8361C2F7
:1009700000008BE290E0FC0180818823D4F78CE2B8
:1009800090E0FC01808189838981813311F481E3C6
:1009900088878981823311F482E388878981833350
:1009A00011F483E388878981843311F484E3888791
:1009B0008981853309F03FC285E388873CC2000006
:1009C0008BE290E0FC0180818823D4F78CE290E0F8
:1009D000FC0180818983898189872EC200008BE296
:1009E00090E0FC0180818823D4F78CE290E0FC0148
:1009F0008081898389818A871FC200008BE290E011
:100A0000FC0180818823D4F78CE290E0FC01808196
:100A1000898389818B8710C284E70E9492008A8132
:100A20000E94920080E20E94920084E50E9492005F
:100A30008B810E94920080E20E94920083E70E94D4
:100A400092008C810E94920080E20E9492008FE6C8
:100A50000E9492008D810E94920080E20E9492008A
:100A600082E70E9492008E810E94920080E20E94A2
:100A7000920081E60E9492008F810E94920080E2A3
:100A80000E94920081E40E94920088850E94920058
:100A900080E20E9492008DE60E94920089850E9469
:100AA000920080E20E9492008AE70E9492008A856A
:100AB0000E94920080E20E9492008AE50E949200C9
:100AC0008B850E94920080E20E94920082E60E9442
:100AD00092008C850E9492008AE00E9492008DE034
:100AE0000E949200A9C182E390E022E330E0F90184
:100AF00020812F77FC01208385E390E025E330E01F
:100B0000F90120812260FC01208385E390E025E348
:100B100030E0F90120812D7FFC0120831E861EC05C
:100B20008CE290E0FC01808189838E85882341F4EA
:100B300083E390E0FC018081882314F081E08E87BC
:100B400083E390E0FC018081882344F48E85882330
:100B500029F083E40E9492008EE6898389818E3693
:100B6000F9F66AC182E390E022E330E0F9012081E6
:100B70002F77FC01208385E390E025E330E0F90145
:100B800020812260FC01208385E390E025E330E0B2
:100B9000F90120812D7FFC01208385E390E025E38E
:100BA00030E0F90120812160FC01208385E390E0A1
:100BB00025E330E0F90120812E7FFC0120831E8691
:100BC0001EC08CE290E0FC01808189838E858823A1
:100BD00041F483E390E0FC018081882314F081E0FC
:100BE0008E8783E390E0FC018081882344F48E8526
:100BF000882329F083E40E9492008EE6898389810C
:100C00008E36F9F619C1188A1F861A8A198A82E364
:100C100090E022E330E0F90120812068FC0120838C
:100C20006CC08CE290E0FC018081898317C085E371
:100C300090E025E330E0F90120812064FC0120836D
:100C400085E390E025E330E0F90120812F7BFC0172
:100C5000208389899A8901969A8B898B8A85882F26
:100C600090E04FEF489F9001499F300D11248989F2
:100C70009A8982179307D8F289E390E0FC0180817A
:100C80008D878D850E9492008F8598890196988B1B
:100C90008F8789858D871AC085E390E025E330E052
:100CA000F90120812064FC01208385E390E025E3A5
:100CB00030E0F90120812F7BFC01208389899A890A
:100CC00001969A8B898B8D8581508D878D858823A0
:100CD00019F78B85282F30E04FEF429FC001439FCB
:100CE000900D11249C8B8B8B2F8538898B899C8947
:100CF0002817390710F08EE6898389818E3609F02E
:100D000090CF82E390E022E330E0F90120812F7759
:100D1000FC01208391C0188A1F861A8A198A82E3EF
:100D200090E022E330E0F90120812068FC0120837B
:100D30006CC08CE290E0FC018081898317C085E360
:100D400090E025E330E0F90120812064FC0120835C
:100D500085E390E025E330E0F90120812F7BFC0161
:100D6000208389899A8901969A8B898B8A85882F15
:100D700090E04FEF489F9001499F300D11248989E1
:100D80009A8982179307D8F289E390E0FC01808169
:100D90008D878D850E9492008F8598890196988B0A
:100DA0008F8789858D871AC085E390E025E330E041
:100DB000F90120812064FC01208385E390E025E394
:100DC00030E0F90120812F7BFC01208389899A89F9
:100DD00001969A8B898B8D8581508D878D8588238F
:100DE00019F78B85282F30E04FEF429FC001439FBA
:100DF000900D11249C8B8B8B2F8538898B899C8936
:100E00002817390710F08EE6898389818E3609F01C
:100E100090CF82E390E022E330E0F90120812F7748
:100E2000FC01208309C000005CCB00005ACB00000D
:100E300058CB000056CB000054CBEE0FFF1F05909F
:0A0E4000F491E02D0994F894FFCF1F
:00000001FF
